:020000040800F2
:10000000800600200D0200081502000817020008F3
:10001000190200081B0200081D0200080000000071
:100020000000000000000000000000001F020008A7
:100030002102000800000000230200082502000839
:1000400027020008270200082702000827020008EC
:1000500027020008270200082702000827020008DC
:1000600027020008270200082702000827020008CC
:1000700027020008270200082702000827020008BC
:1000800027020008270200082702000827020008AC
:10009000270200082702000827020008270200089C
:1000A000270200082702000827020008270200088C
:1000B000270200082702000827020008270200087C
:1000C000270200082702000827020008270200086C
:1000D000270200082702000827020008270200085C
:1000E000270200082702000827020008270200084C
:1000F000270200082702000827020008270200083C
:10010000270200082702000827020008270200082B
:10011000270200082702000827020008270200081B
:10012000270200082702000827020008270200080B
:1001300027020008270200082702000827020008FB
:1001400027020008270200082702000827020008EB
:1001500027020008270200082702000827020008DB
:1001600027020008270200082702000827020008CB
:1001700027020008270200082702000800000000EC
:10018000270200082702000800F002F800F02EF80D
:100190000AA090E8000C82448344AAF10107DA45E2
:1001A00001D100F023F8AFF2090EBAE80F0013F006
:1001B000010F18BFFB1A43F001031847E0040000C9
:1001C000F00400000023002400250026103A28BF78
:1001D00078C1FBD8520728BF30C148BF0B607047B9
:1001E0001FB500F02EFA1FBD10B510BD00F031F89C
:1001F0001146FFF7F5FF00F0FFF900F04FF803B4E8
:10020000FFF7F2FF03BC00F057F8000009488047F1
:1002100009480047FEE7FEE7FEE7FEE7FEE7FEE7E8
:10022000FEE7FEE7FEE7FEE704480549054A064B00
:100230007047000081050008890100088000002047
:100240008006002080020020800200207047704756
:100250007047754600F02CF8AE46050069465346D7
:1002600020F00700854618B020B5FFF7DDFFBDE898
:1002700020404FF000064FF000074FF000084FF00D
:10028000000BAC46ACE8C009ACE8C009ACE8C0095A
:10029000ACE8C00921F007018D46704710B504464F
:1002A000AFF300802046BDE81040FFF7A8BF000074
:1002B000004870470000002001491820ABBEFEE74F
:1002C000260002007047000043F63000C4F202002E
:1002D000416941F4807141610168490203D40168B8
:1002E00041F4800101600168C90703D1016841F050
:1002F000010101600020C4F20200016841F0030125
:10030000016042F20800C4F2010050F8041C41F000
:10031000007140F8041C0021C162016841F40071C1
:100320000160016841F480710160016841F00201DF
:1003300001607047B0B546F27044C4F2020422680E
:1003400042F2080522F001022260C4F201052A6887
:1003500042F001022A60226842F4003222602268E0
:1003600042F480622260226842F4807222606160FE
:1003700005F14401A160E06054F8640C40F02000F5
:1003800044F8640C00F028F9206840F01000206068
:10039000206840F001002060286840F0804028601C
:1003A000B0BD000043F60001C4F20201086840F449
:1003B000803008600868800307D441F2020000BF63
:1003C000013842D00A689203FAD5486840F48000A8
:1003D0004860486840F004004860486820F0100019
:1003E0004860486820F440504860486840F49050A5
:1003F0004860486820F440304860086840F08070E9
:1004000008600868800106D441F20200013821D05A
:100410000A689201FAD5D1F8000440F00300C1F84F
:10042000000488688860886840F480508860886824
:100430008860886840F00200886000BF8868000714
:10044000FCD500206FF001020CE04FF0FF306FF49C
:10045000803207E008686FF4803220F08070086016
:100460006FF001000B681A400A60704710B543F640
:100470003004C4F202042069800003D4206940F0F3
:10048000005020612068C00703D1206840F00100BF
:1004900020600020C4F20200016841F44071016054
:1004A00047F20040C4F20000016841F4805101604D
:1004B000016841F004010160016841F0010101603F
:1004C0002068800203D4206840F40010206046F2C7
:1004D0008800C4F2020050F87C1C41F4006140F82E
:1004E0007C1C016841F060610160016841F40031E9
:1004F0000160016841F400510160016841F400614C
:100500000160016841F480610160016841F480711B
:100510000160016841F040010160016841F0100193
:10052000016000F061F82069C00603D4206940F042
:100530001000206141F20400C4F200000021416279
:1005400001621D218162016841F02001016010BD3E
:1005500046F28802C4F20202516047F20841C4F236
:1005600000019160D060106840F00100106041F21D
:100570000000C4F20000016841F001010160704711
:100580004EF68850CEF2000001684FF0000C41F4A6
:100590007001016043F60001C4F202010A6842F0F2
:1005A00001020A60C1F808C00B684FF6FF72CFF66F
:1005B000F6621A400A6043F21002C2F200424A6038
:1005C0000A6822F480220A60C1F80CC04FF0006172
:1005D00040F8801C704700004EF20410CEF200007C
:1005E0004FF08051016070474EF20010CEF20000D3
:1005F0004FF4803101607047FFF7D4FEFFF736FFFC
:10060000FFF762FE40F25C60C0F600002021FFF7B9
:100610009FFF40F26000C2F200004021FFF78AFE17
:1006200043F63000C4F20200016841F008010160A5
:1006300040F60040C4F20200016841F080410160D0
:10064000FEE7F1EE100A4FF6FF71C0F2C03120EA6A
:10065000010040F04070E1EE100A7047FF078F097B
:100660000F0B710CAA0DA60E630FD80FFF0FD80F3A
:10067000630FA60EA70D710C0F0B8F09FF076F06F6
:10068000EF048D03570258019B002600000026004E
:100690009B00580157028D03EF046F06AC0600085B
:0C06A0000000002080060000C4010008DB
:040000050800020DE0
:00000001FF
