:020000040800F2
:1000000050080020290200083102000833020008CD
:10001000350200083702000839020008000000001D
:100020000000000000000000000000003B0200088B
:100030003D020008000000003F020008FD07000824
:10004000430200084302000843020008430200087C
:10005000430200084302000843020008430200086C
:10006000430200084302000843020008430200085C
:100070004302000843020008810700084302000809
:100080009D070008430200084302000843020008DD
:10009000430200084302000843020008430200082C
:1000A000430200084302000843020008430200081C
:1000B000430200084302000843020008430200080C
:1000C00043020008430200084302000843020008FC
:1000D0004302000843020008430200084D0A0008DA
:1000E00043020008430200084302000843020008DC
:1000F00043020008430200084302000843020008CC
:1001000043020008430200084302000843020008BB
:100110004302000843020008E50800084302000803
:10012000430200084302000843020008430200089B
:10013000D5070008430200084302000843020008F4
:10014000430200084302000843020008430200087B
:10015000430200084302000843020008430200086B
:10016000430200084302000843020008430200085B
:100170004302000843020008430200080000000098
:10018000430200084302000800F002F800F03CF8C7
:100190000AA090E8000C82448344AAF10107DA45E2
:1001A00001D100F031F8AFF2090EBAE80F0013F0F8
:1001B000010F18BFFB1A43F001031847980B00000A
:1001C000B80B0000103A24BF78C878C1FAD852079B
:1001D00024BF30C830C144BF04680C6070470000C1
:1001E0000023002400250026103A28BF78C1FBD840
:1001F000520728BF30C148BF0B6070471FB500F0E1
:10020000A4FC1FBD10B510BD00F058F81146FFF753
:10021000F5FF00F057FC00F076F803B4FFF7F2FFAB
:1002200003BC00F07DF800000948804709480047FA
:10023000FEE7FEE7FEE7FEE7FEE7FEE7FEE7FEE796
:10024000FEE7FEE704480549054A064B70470000F3
:100250008D08000889010008500200205008002085
:1002600050040020500400204FF0000200B5134657
:1002700094469646203922BFA0E80C50A0E80C50C6
:10028000B1F12001BFF4F7AF090728BFA0E80C5077
:1002900048BF0CC05DF804EB890028BF40F8042B70
:1002A00008BF704748BF20F8022B11F0804F18BFDD
:1002B00000F8012B7047704770477047754600F093
:1002C0002BF8AE4605006946534620F007008546E8
:1002D00018B020B5FFF7B6FFBDE820404FF000068C
:1002E0004FF000074FF000084FF0000BAC46ACE8B1
:1002F000C009ACE8C009ACE8C009ACE8C00921F00D
:1003000007018D46704710B50446AFF300802046C4
:10031000BDE81040FFF781BF00487047080000208B
:1003200001491820ABBEFEE726000200704700001E
:1003300040F26800C2F20000002101707047000026
:1003400040F26800C2F200000078704780B543F6C2
:100350003000C4F20200416941F4807141610168DA
:10036000490203D4016841F4800101600168C907B2
:1003700003D1016841F0010101600020C4F20200D4
:10038000016841F00301016042F20800C4F201007B
:10039000D0F8FC1221F44031C0F8FC1250F8041CD3
:1003A00040F8041C016841F0020101600021C162B3
:1003B000016841F48061016000F05CFB80BD0000D9
:1003C00070B582B0044642F2080600200D46C4F221
:1003D00001060190FFF7ACFF3068C00718D1306804
:1003E0004DF6836140F00100306040F20000C2F23F
:1003F00000000068C4F21B31A0FB0101880C00EB77
:10040000400000BF0190019810B101980138F9E750
:100410003068C00746F27040C4F2020013D056F8AC
:10042000081C21F0220146F8081C316841F4807153
:1004300031600168C90706D0016821F0010101603F
:100440000168C907FCD1016841F40031016001680D
:1004500041F480610160016841F4807101600168CC
:1004600041F400510160016841F4006101604560A0
:10047000016821F0C001016006F144018160C4609F
:1004800050F8641C41F03D0140F8641C016841F0E3
:1004900010010160016841F001010160306840F025
:1004A0008040306002B070BD42F20801C4F2010128
:1004B000086820F0010008600868C00718BF70478E
:1004C0000A6846F2704022F48072C4F202000A60A8
:1004D000016821F010010160016821F00101016053
:1004E0000168C907FCD150F8641C41F03D0140F897
:1004F000641C704780B543F60000C4F20200016836
:1005000041F4803101600168890306D441F202019F
:10051000013946D002689203FAD5416841F480015E
:100520004160416841F004014160416821F01001DF
:100530004160416821F440514160416841F490516B
:100540004160416821F440314160016841F08071AF
:1005500001600168890106D441F20201013927D006
:1005600002689201FAD5D0F8001441F00301C0F8F6
:10057000001481688160816841F4805181608168E4
:100580008160816841F00201816000BF81680907D4
:10059000FCD5016821F00101016000F037F900206D
:1005A00080BD016821F4803101604FF0FF3080BDD3
:1005B000016821F080710160016821F480310160DF
:1005C0006FF0010080BD000040F26A00C2F200003E
:1005D000002101707047000080B543F63000C4F27E
:1005E00002000169890003D4016941F000510161F1
:1005F0000168C90703D1016841F0010101600021D0
:10060000C4F202010A6842F440720A600168890279
:1006100003D4016841F4001101600169C90603D4E3
:10062000016941F01001016141F20400C4F20000CF
:100630000021416201621D218162016841F02001B7
:10064000016000F01FFA80BD10B547F20044C4F20B
:100650000004FFF7B9FF2068C00703D1206840F00D
:10066000010020602068C00708BF10BD206840F46A
:1006700080502060206840F004002060616B46F2EA
:10068000880041F40051C4F2020061630168C907A7
:1006900007D0016821F00101016000BF0168C907AE
:1006A000FCD1016841F060610160016841F40031F2
:1006B0000160016841F400510160016841F400618A
:1006C0000160016841F480610160016841F480715A
:1006D0000160016841F040010160F021416040F695
:1006E0007431C0F60001C16004F10801816050F866
:1006F0007C1C41F4746140F87C1C016841F01001DD
:100700000160016841F00101016041F20000C4F2A2
:100710000000016841F00101016010BD47F2004096
:10072000C4F20000016821F0010101600168C907FD
:1007300018BF7047016821F480510160016821F001
:100740000401016041F20001C4F200010A6846F2AE
:10075000880022F00102C4F202000A60016821F060
:1007600010010160016821F0010101600168C90701
:10077000FCD150F87C1C41F4746140F87C1C70473B
:1007800046F20800C4F2020050F8081C090158BFE4
:100790007047016841F000610160704746F20C004B
:1007A000C4F2020050F8081C090558BF70470168E0
:1007B00041F40061016040F21440C4F2020001689B
:1007C00081F02001016040F26A00C2F200000121C4
:1007D0000170704746F20C40C4F2020050F8081C49
:1007E000890658BF7047016841F02001016040F25E
:1007F0006800C2F2000001210170704740F24C20F5
:10080000C2F20000016801310160704743F6040044
:10081000C4F20200416801F00C0242F20041082AD1
:10082000C0F2F40106D0042A1DD141F20021C0F229
:100830007A0118E002680368520241F20022C0F215
:100840007A0258BF0A46016803F03F03B2FBF3F295
:10085000C1F3881103685143C3F30142022303EB40
:100860004202B1FBF2F140F20002C2F2000211605A
:10087000406840F66431C0F30310C0F60001085C24
:10088000116821FA00F01060704700004EF68850A1
:10089000CEF2000001684FF0000C41F470010160DD
:1008A00043F60001C4F202010A6842F001020A6044
:1008B000C1F808C00B684FF6FF72CFF6F6621A4017
:1008C0000A6043F21002C2F200424A600A6822F44F
:1008D00080220A60C1F80CC04FF0006140F8801C13
:1008E0007047000041F21000C4F200000168C9071F
:1008F00008BF7047016821F00101016040F2144017
:10090000C4F20200016881F04001016070470000FC
:1009100080B543F63000C4F202000168890703D4B1
:10092000016841F00201016040F20041C4F202019D
:100930000A6842F400120A600A6842F400020A607F
:100940004A6A42F4E0624A624A6A42F4E0424A6217
:100950000169490303D4016941F48021016144F62E
:100960000C01C4F20001142241F8042C0A6842F47C
:1009700000420A600A6842F008020A600A6842F00F
:1009800004020A608A6842F080028A600A6842F0C3
:1009900020020A600A6842F400520A60016841F0CD
:1009A000150101600168890203D4016841F4001156
:1009B00001600E2000F06EF8272000F06BF800F0C8
:1009C00079F880BD44F6000CC4F2000CDCF800306D
:1009D0005B06FBD546F25803C4F202031A6822F004
:1009E00001021A601A68D207FCD153F8502C42F069
:1009F000006243F8502C0CF104029A60D8605960F0
:100A0000186840F000601860186840F40030186002
:100A1000186840F040001860186840F48060186062
:100A2000186840F01000186053F8500C40F0006057
:100A300043F8500CDCF8000020F04000CCF8000037
:100A4000186840F0010018607047000044F600008C
:100A5000C4F200000168890658BF7047016821F0A0
:100A600020010160406840F26901C2F20001087093
:100A7000704700004EF20410CEF200004FF080519B
:100A8000016070474EF20010CEF200004FF480314A
:100A900001607047002848BF704700F01F01012225
:100AA00002FA01F14EF200124009CEF2000242F8C1
:100AB000201070474EF20E40CEF20000202101704F
:100AC00070470000FFF716FDFFF722FFFFF73EFC1F
:100AD000FFF782FD40F20040C4F20200016840F2DC
:100AE000690541F480610160016840F26C0441F4E1
:100AF0008051C2F200050026C2F20004016000BF6E
:100B00002878802806D12E70FFF79EFD2046F02120
:100B1000FFF756FC2878FF2809D12E70FFF7C4FC98
:100B2000FFF7FCFD20464FF4F071FFF79DFBFFF748
:100B300007FC0028E4D0FFF7FBFBFFF7B5FC2046DD
:100B40004FF4F071FFF73EFFDAE7F1EE100A4FF6CF
:100B5000FF71C0F2C03120EA010040F04070E1EEC8
:100B6000100A7047000000000000000001020304AA
:100B70000607080900001100220033004400550058
:100B80006600770088009900AA00BB00CC00DD0059
:100B9000EE00FF00110122013301440155016601FD
:100BA000770188019901AA01BB01CC01DD01EE01A9
:100BB000FF0110022202330244025502660277024C
:100BC00088029902AA02BB02CC02DD02EE02FF02F9
:100BD000100321033303440355036603770388039B
:100BE0009903AA03BB03CC03DD03EE03FF03100448
:100BF00021043204440455046604770488049904EB
:100C0000AA04BB04CC04DD04EE04FF041005210596
:100C10003205430555056605770588059905AA053A
:100C2000BB05CC05DD05EE05FF05100621063206E5
:100C3000430654066606770688069906AA06BB068A
:100C4000CC06DD06EE06FF06100721073207430734
:100C500054076507770788079907AA07BB07CC07DA
:100C6000DD07EE07FF071008210832084308540883
:100C70006508760888089908AA08BB08CC08DD082A
:100C8000EE08FF08100921093209430954096509D2
:100C9000760987099909AA09BB09CC09DD09EE097A
:100CA000FF09100A210A320A430A540A650A760A21
:100CB000870A980AAA0ABB0ACC0ADD0AEE0AFF0ACA
:100CC000100B210B320B430B540B650B760B870B70
:100CD000980BA90BBB0BCC0BDD0BEE0BFF0B100C19
:100CE000210C320C430C540C650C760C870C980CC0
:100CF000A90CBA0CCC0CDD0CEE0CFF0C100D210D68
:100D0000320D430D540D650D760D870D980DA90D0F
:100D1000BA0DCB0DDD0DEE0DFF0D100E210E320EB6
:100D2000430E540E650E760E870E980EA90EBA0E5F
:100D3000CB0EDC0EEE0EFF0E100F210F320F430F05
:100D4000540F650F760F870F980FA90FBA0FCB0FAF
:100D5000DC0FED0F740D00080000002004000000FF
:100D6000C4010008780D00080800002048080000B1
:080D7000E00100080024F4007A
:0400000508000229C4
:00000001FF
