:020000040800F2
:1000000060080020290200083102000833020008BD
:10001000350200083702000839020008000000001D
:100020000000000000000000000000003B0200088B
:100030003D020008000000003F020008D50800084B
:10004000430200084302000843020008430200087C
:10005000430200084302000843020008430200086C
:10006000430200084302000843020008430200085C
:1000700043020008430200080D080008430200087C
:100080003508000843020008430200084302000844
:10009000430200084302000843020008430200082C
:1000A000430200084302000843020008430200081C
:1000B000430200084302000843020008430200080C
:1000C00043020008430200084302000843020008FC
:1000D0004302000843020008430200085D0B0008C9
:1000E00043020008430200084302000843020008DC
:1000F00043020008430200084302000843020008CC
:1001000043020008430200084302000843020008BB
:100110004302000843020008BD090008430200082A
:10012000430200084302000843020008430200089B
:10013000590800084302000843020008430200086F
:10014000430200084302000843020008430200087B
:10015000430200084302000843020008430200086B
:10016000430200084302000843020008430200085B
:100170004302000843020008430200080000000098
:10018000430200084302000800F002F800F03CF8C7
:100190000AA090E8000C82448344AAF10107DA45E2
:1001A00001D100F031F8AFF2090EBAE80F0013F0F8
:1001B000010F18BFFB1A43F0010318479C0F000002
:1001C000BC0F0000103A24BF78C878C1FAD8520793
:1001D00024BF30C830C144BF04680C6070470000C1
:1001E0000023002400250026103A28BF78C1FBD840
:1001F000520728BF30C148BF0B6070471FB500F0E1
:10020000A2FD1FBD10B510BD00F088F81146FFF724
:10021000F5FF00F001FD00F0A6F803B4FFF7F2FFD0
:1002200003BC00F0A9F800000948804709480047CE
:10023000FEE7FEE7FEE7FEE7FEE7FEE7FEE7FEE796
:10024000FEE7FEE704480549054A064B70470000F3
:10025000650900088901000860020020600800208C
:10026000600400206004002070B50446051F00F003
:100270004DF80068002C14BF446870BD002C18BFF6
:10028000AC423CBF20466468F8D301680A18AA4211
:1002900018BF456003D12A680546114401602868EB
:1002A0004119A1421CBF6C6070BD61686960216822
:1002B0000844286070BD4FF0000200B51346944614
:1002C0009646203922BFA0E80C50A0E80C50B1F1AE
:1002D0002001BFF4F7AF090728BFA0E80C5048BFC2
:1002E0000CC05DF804EB890028BF40F8042B08BF60
:1002F000704748BF20F8022B11F0804F18BF00F85C
:10030000012B7047704770477047000000487047E6
:100310001000002000487047080000207546FFF7D5
:10032000F9FFAE4605006946534620F007008546B2
:1003300018B020B5FFF786FFBDE820404FF000065B
:100340004FF000074FF000084FF0000BAC46ACE850
:10035000C009ACE8C009ACE8C009ACE8C00921F0AC
:1003600007018D46704710B50446AFF30080204664
:10037000BDE81040FFF751BF01491820ABBEFEE7B2
:10038000260002007047000040F26800C2F2000040
:10039000002101707047000040F26800C2F20000C6
:1003A0000078704780B543F63000C4F2020041691E
:1003B00041F4807141610168490203D4016841F44C
:1003C000800101600168C90703D1016841F00101A2
:1003D00001600020C4F20200016841F003010160E5
:1003E00042F20800C4F20100D0F8FC1221F44031BE
:1003F000C0F8FC1250F8041C40F8041C016841F0DD
:10040000020101600021C162016841F48061016064
:1004100000F0D0FB80BD000042F2080CC4F2010CD9
:10042000DCF80030DB0718BF7047DCF8003043F021
:100430000103CCF80030DCF80030DB0746F27043F3
:10044000C4F2020315D05CF8082C22F022024CF80A
:10045000082CDCF8002042F48072CCF800201A68E6
:10046000D20706D01A6822F001021A601A68D20771
:10047000FCD11A6842F400321A601A6842F48062B1
:100480001A601A6842F480721A601A6842F40052C4
:100490001A601A6842F400621A605960196821F003
:1004A000C00119600CF144019960D86053F8640CE4
:1004B00040F03D0043F8640C186840F010001860EC
:1004C000186840F001001860DCF8000040F080403F
:1004D000CCF800007047000042F20800C4F20100AE
:1004E0000168C90721D0016821F00101016001689C
:1004F000C90718BF7047026846F2704122F4807243
:10050000C4F202010260086820F010000860086868
:1005100020F00100086000BF0868C007FCD151F856
:10052000640C40F03D0041F8640C704780B543F620
:100530000000C4F20200016841F4803101600168EA
:10054000890306D441F20201013946D002689203C0
:10055000FAD5416841F480014160416841F00401ED
:100560004160416821F010014160416821F440512F
:100570004160416841F490514160416821F440314B
:100580004160016841F0807101600168890106D411
:1005900041F20201013927D002689201FAD5D0F860
:1005A000001441F00301C0F8001481688160816883
:1005B00041F48051816081688160816841F002016D
:1005C000816000BF81680907FCD5016821F0010145
:1005D000016000F087F9002080BD016821F48031BE
:1005E00001604FF0FF3080BD016821F08071016033
:1005F000016821F4803101606FF0010080BD0000CE
:1006000080B5042888BF80BDDFE800F0030B13220B
:100610001B0040F67050C0F60000F02100F052F8C8
:1006200080BD41F26800C0F60000782100F04AF871
:1006300080BD40F6C870C0F60000502100F042F8BE
:1006400080BD40F65070C0F600003C2100F03AF842
:1006500080BD000080B543F63000C4F2020001699D
:10066000890003D4016941F0005101610168C907A3
:1006700003D1016841F0010101600021C4F20201CF
:100680000A6842F440720A600168890203D4016872
:1006900041F4001101600169C90603D4016941F008
:1006A0001001016141F20400C4F200000021416226
:1006B00001621D218162016841F02001016000F0AA
:1006C00081FA80BD80B547F2004EC4F2000EDEF81C
:1006D0000030DB0762D1DEF8003043F00103CEF8D2
:1006E0000030DEF80030DB0708BF80BDDEF80030E8
:1006F00043F48053CEF80030DEF8003043F00403BA
:10070000CEF80030DEF834C046F288034CF40052D4
:10071000C4F20203CEF834201A68D20707D01A6850
:1007200022F001021A6000BF1A68D207FCD11A68D1
:1007300042F060621A601A6842F400321A601A6865
:1007400042F400521A601A6842F400621A601A6891
:1007500042F480621A601A6842F480721A601A6861
:1007600042F040021A605960D8600EF108009860AB
:1007700053F87C0C40F4746043F87C0C186840F02B
:1007800010001860186840F00100186041F2000085
:10079000C4F20000016841F00101016080BD000069
:1007A00047F20040C4F200000168C9072DD001687B
:1007B00021F0010101600168C90718BF7047016895
:1007C00021F480510160016821F00401016041F2CF
:1007D0000001C4F200010A6846F2880022F001021A
:1007E000C4F202000A60016821F010010160016892
:1007F00021F00101016000BF0168C907FCD150F878
:100800007C1C41F4746140F87C1C704746F208007F
:10081000C4F2020050F8081C090158BF7047016873
:1008200041F00061016040F26B00C2F20000012162
:100830000170704780B546F20C00C4F2020050F817
:10084000081C090558BF80BD016841F400610160C2
:1008500000F01CF880BD000046F20C40C4F202001B
:1008600050F8081C890658BF7047016841F0200104
:10087000016040F26800C2F200000121017070477F
:1008800040F20000C2F200000078704740F26900B8
:10089000C2F20000017881B140F25421C2F200019D
:1008A0000A880F2A12D100220A80027040F200004A
:1008B000C2F200000121017070470121017040F275
:1008C0000000C2F20000002101707047088801306A
:1008D0000880704740F25C20C2F2000001680131DC
:1008E0000160704743F60400C4F20200416801F061
:1008F0000C0242F20041082AC0F2F40106D0042A98
:100900001DD141F20021C0F27A0118E002680368AB
:10091000520241F20022C0F27A0258BF0A46016830
:1009200003F03F03B2FBF3F2C1F3881103685143B4
:10093000C3F30142022303EB4202B1FBF2F140F2A6
:100940000402C2F200021160406840F66051C0F338
:100950000310C0F60001085C116821FA00F0106075
:10096000704700004EF68850CEF2000001684FF04C
:10097000000C41F47001016043F60001C4F2020171
:100980000A6842F001020A60C1F808C00B684FF61D
:10099000FF72CFF6F6621A400A6043F21002C2F20A
:1009A00000424A600A6822F480220A60C1F80CC042
:1009B0004FF0006140F8801C7047000041F21000C9
:1009C000C4F200000168C90708BF7047016821F040
:1009D000010101607047000040F26B00C2F20000AC
:1009E000002101707047000040F26B00C2F200006D
:1009F0000078704780B543F63000C4F20200016809
:100A0000890703D4016841F00201016040F200410E
:100A1000C4F202010A6842F400120A600A6842F451
:100A200000020A604A6A42F4E0624A624A6A42F498
:100A3000E0424A620169490303D4016941F480211B
:100A4000016144F60C01C4F20001142241F8042CA7
:100A50000A6842F400420A600A6842F008020A602A
:100A60000A6842F004020A608A6842F080028A60E2
:100A70000A6842F020020A600A6842F400520A60E2
:100A8000016841F0150101600168890203D4016821
:100A900041F4001101600E2000F09CF8272000F0C6
:100AA00099F800F0A7F880BD44F6000CC4F2000CE1
:100AB000DCF800305B06FBD546F25803C4F20203B3
:100AC0001A6822F001021A601A68D207FCD153F8A2
:100AD000502C42F0006243F8502C0CF104029A6052
:100AE000D8605960186840F000601860186840F4D9
:100AF00000301860186840F040001860186840F432
:100B000080601860186840F01000186053F8500CAE
:100B100040F0006043F8500CDCF8000020F040008A
:100B2000CCF80000186840F0010018607047000021
:100B300040F26A01C2F200010A78002A08BF704739
:100B400000220A7040F25121C2F200010A780270BC
:100B50004A784270897881707047000044F600013D
:100B6000C4F200010868800658BF7047086820F08A
:100B70002000086040F25020C2F20000037849686B
:100B80000278022B0DD140F25123C2F20003995496
:100B90000021017040F26A00C2F2000001210170E0
:100BA0007047531C037040F25120C2F20000815480
:100BB000704700004EF20410CEF200004FF080515A
:100BC000016070474EF20010CEF200004FF4803109
:100BD00001607047002848BF704700F01F010122E4
:100BE00002FA01F14EF200124009CEF2000242F880
:100BF000201070474EF20E40CEF20000202101700E
:100C00007047000080B5FFF72FFB80BD0130012841
:100C100098BF012001307047FFF788FC43F6300091
:100C2000C4F20200016841F00801016040F6004092
:100C3000C4F20200016841F080510160FFF7DAFE62
:100C4000FFF7B0FBFFF706FD40F24D2440F24C26C3
:100C500040F2562740F2582A40F26C08C2F20004D3
:100C6000C2F20006C2F200074FF000090125C2F2ED
:100C7000000AC2F2000800BF2046FFF759FF307893
:100C80000128387001D00028F6D12178FF290BD037
:100C9000802908BF357001280AD00028ECD1FFF761
:100CA0001BFCFFF77DFDE7E786F800900128F4D1F3
:100CB0006078FFF7A5FCFFF7E3FD50B160780428EA
:100CC00014D8DFE800F003090C130F004046E621BA
:100CD0000AE0FFF701FC09E04046782104E04046C5
:100CE000502101E040463C21FFF796FBFFF754FB03
:100CF000C0B1FFF749FB6078042813D8DFE800F0A3
:100D0000030507120900F02004E0782002E05020DB
:100D100000E03C20FFF77AFFDAF80020410010469F
:100D2000FFF7C2FEFFF760FE00283FF4A5AFFFF714
:100D300053FEDAF80000FFF765FF40464FF4F0710C
:100D4000FFF7B9FA98E7F1EE100A4FF6FF71C0F21B
:100D5000C03120EA010040F04070E1EE100A704717
:100D6000000000000000000001020304060708095B
:100D70000000110022003300440055006600770097
:100D800088009900AA00BB00CC00DD00EE00FF0047
:100D900011012201330144015501660177018801E7
:100DA0009901AA01BB01CC01DD01EE01FF01100296
:100DB0002202330244025502660277028802990237
:100DC000AA02BB02CC02DD02EE02FF0210032103E5
:100DD0003303440355036603770388039903AA0387
:100DE000BB03CC03DD03EE03FF0310042104320434
:100DF000440455046604770488049904AA04BB04D7
:100E0000CC04DD04EE04FF04100521053205430582
:100E100055056605770588059905AA05BB05CC0526
:100E2000DD05EE05FF0510062106320643065406D1
:100E30006606770688069906AA06BB06CC06DD0676
:100E4000EE06FF0610072107320743075407650720
:100E5000770788079907AA07BB07CC07DD07EE07C6
:100E6000FF0710082108320843085408650876086F
:100E700088089908AA08BB08CC08DD08EE08FF0816
:100E800010092109320943095409650976098709BE
:100E90009909AA09BB09CC09DD09EE09FF09100A65
:100EA000210A320A430A540A650A760A870A980A0E
:100EB000AA0ABB0ACC0ADD0AEE0AFF0A100B210BB4
:100EC000320B430B540B650B760B870B980BA90B5E
:100ED000BB0BCC0BDD0BEE0BFF0B100C210C320C03
:100EE000430C540C650C760C870C980CA90CBA0CAE
:100EF000CC0CDD0CEE0CFF0C100D210D320D430D52
:100F0000540D650D760D870D980DA90DBA0DCB0DFD
:100F1000DD0DEE0DFF0D100E210E320E430E540EA0
:100F2000650E760E870E980EA90EBA0ECB0EDC0E4D
:100F3000EE0EFF0E100F210F320F430F540F650FEF
:100F4000760F870F980FA90FBA0FCB0FDC0FED0F9D
:100F5000000044008800CC00110155019901DD0119
:100F600022026602AA02EE0233037703BB03FF03E9
:100F700044048804CC04100555059905DD052106B7
:100F80006606AA06EE0632077707BB07FF07430887
:100F90008808CC08100954099909DD09210A650A55
:100FA000AA0AEE0A320B760BBB0BFF0B430C870C25
:100FB000CC0C100D540D980DDD0D210E650EA90EF3
:100FC000EE0E320F760FBA0F000033006600990064
:100FD000CC00FF00330166019901CC01FF0133020F
:100FE00066029902CC02FF02330366039903CC0325
:100FF000FF03320466049904CC04FF04320566053D
:101000009905CC05FF05320666069906CC06FF0653
:10101000320765079907CC07FF073208650899086A
:10102000CC08FF08320965099909CC09FF09320A81
:10103000650A980ACC0AFF0A320B650B980BCC0B99
:10104000FF0B320C650C980CCC0CFF0C320D650DAF
:10105000980DCB0DFF0D320E650E980ECB0EFF0EC8
:10106000320F650F980FCB0F00002200440066007E
:101070008800AA00CC00EE00110133015501770170
:101080009901BB01DD01FF012202440266028802D0
:10109000AA02CC02EE02100333035503770399032F
:1010A000BB03DD03FF032104440466048804AA048F
:1010B000CC04EE0410053205550577059905BB05EE
:1010C000DD05FF052106430666068806AA06CC064E
:1010D000EE0610073207540777079907BB07DD07AD
:1010E000FF072108430865088808AA08CC08EE080D
:1010F00010093209540976099909BB09DD09FF096C
:10110000210A430A650A870AAA0ACC0AEE0A100BCA
:10111000320B540B760B980BBB0BDD0BFF0B210C2A
:10112000430C650C870CA90CCC0CEE0C100D320D89
:10113000540D760D980DBA0DDD0DFF0D210E430EE9
:10114000650E870EA90ECB0EEE0E100F320F540F48
:10115000760F980FBA0FDC0F7811000800000020FE
:1011600008000000C40100088011000808000020E9
:1011700058080000E0010008010000000024F4000D
:0400000508000229C4
:00000001FF
