:020000040800F2
:1000000070060020290200083102000833020008AF
:10001000350200083702000839020008000000001D
:100020000000000000000000000000003B0200088B
:100030003D020008000000003F02000841020008E5
:10004000430200084302000843020008430200087C
:10005000430200084302000843020008430200086C
:10006000430200084302000843020008430200085C
:1000700043020008430200083D050008430200084F
:10008000430200084302000843020008430200083C
:10009000430200084302000843020008430200082C
:1000A000430200084302000843020008430200081C
:1000B000430200084302000843020008430200080C
:1000C00043020008430200084302000843020008FC
:1000D000430200084302000843020008E906000842
:1000E00043020008430200084302000843020008DC
:1000F00043020008430200084302000843020008CC
:1001000043020008430200084302000843020008BB
:1001100043020008430200084302000843020008AB
:10012000430200084302000843020008430200089B
:10013000430200084302000843020008430200088B
:10014000430200084302000843020008430200087B
:10015000430200084302000843020008430200086B
:10016000430200084302000843020008430200085B
:100170004302000843020008430200080000000098
:10018000430200084302000800F002F800F03CF8C7
:100190000AA090E8000C82448344AAF10107DA45E2
:1001A00001D100F031F8AFF2090EBAE80F0013F0F8
:1001B000010F18BFFB1A43F001031847AC070000FA
:1001C000CC070000103A24BF78C878C1FAD852078B
:1001D00024BF30C830C144BF04680C6070470000C1
:1001E0000023002400250026103A28BF78C1FBD840
:1001F000520728BF30C148BF0B6070471FB500F0E1
:10020000B6FA1FBD10B510BD00F031F81146FFF76A
:10021000F5FF00F095FA00F04FF803B4FFF7F2FF96
:1002200003BC00F057F80000094880470948004720
:10023000FEE7FEE7FEE7FEE7FEE7FEE7FEE7FEE796
:10024000FEE7FEE704480549054A064B70470000F3
:100250005905000889010008700000207006002080
:10026000700200207002002070477047704775468A
:1002700000F02CF8AE4605006946534620F0070012
:10028000854618B020B5FFF7DDFFBDE820404FF0F0
:1002900000064FF000074FF000084FF0000BAC468F
:1002A000ACE8C009ACE8C009ACE8C009ACE8C009DA
:1002B00021F007018D46704710B50446AFF300806A
:1002C0002046BDE81040FFF7A8BF00000048704777
:1002D0000800002001491820ABBEFEE726000200FE
:1002E0007047000043F63000C4F20200416941F457
:1002F000807141610168490203D4016841F48001C1
:1003000001600168C90703D1016841F00101016082
:100310000020C4F20200016841F00301016042F2D2
:100320000800C4F2010050F8041C41F0007140F8CC
:10033000041C0021C162016841F400710160016880
:1003400041F480710160016841F002010160704771
:1003500043F60001C4F20201086840F480300860EE
:100360000868800307D441F2020000BF013842D080
:100370000A689203FAD5486840F4800048604868EB
:1003800040F004004860486820F010004860486869
:1003900020F440504860486840F4905048604868F5
:1003A00020F440304860086840F0807008600868B9
:1003B000800106D441F20200013821D00A6892017E
:1003C000FAD5D1F8000440F00300C1F800048868B1
:1003D0008860886840F48050886088688860886891
:1003E00040F00200886000BF88680007FCD500204C
:1003F0006FF001020CE04FF0FF306FF4803207E045
:1004000008686FF4803220F0807008606FF001009F
:100410000B681A400A60704710B543F63004C4F206
:1004200002042069800003D4206940F0005020615C
:100430002068C00703D1206840F001002060002040
:10044000C4F20200016841F44071016047F20040CB
:10045000C4F20000016841F480510160016841F07C
:1004600004010160016841F001010160206880021F
:1004700003D4206840F40010206046F28800C4F2E3
:10048000020050F87C1C41F4006140F87C1C0168BB
:1004900041F060610160016841F400310160016870
:1004A00041F400510160016841F40061016001689C
:1004B00041F480610160016841F48071016001686C
:1004C00041F040010160016841F01001016000F05D
:1004D0001FF92069C00603D4206940F01000206194
:1004E00041F20400C4F200000021416201621D21BA
:1004F0008162016841F02001016040F28870C0F61D
:100500000000F02100F002F810BD000046F2880261
:10051000C4F20202516047F20841C4F20001916046
:10052000D060106840F00100106041F20000C4F299
:100530000000016841F001010160704746F20800C7
:10054000C4F2020050F8081C090158BF7047016846
:1005500041F00061016070474EF68850CEF2000015
:1005600001684FF0000C41F47001016043F6000196
:10057000C4F202010A6842F001020A60C1F808C030
:100580000B684FF6FF72CFF6F6621A400A6043F22C
:100590001002C2F200424A600A6822F480220A6015
:1005A000C1F80CC04FF0006140F8801C704700009B
:1005B00080B543F63000C4F202000168890703D415
:1005C000016841F00201016040F20041C4F2020101
:1005D0000A6842F400120A600A6842F400020A60E3
:1005E0004A6A42F4E0624A624A6A42F4E0424A627B
:1005F0000169490303D4016941F48021016144F692
:100600000C01C4F20001142241F8042C0A6842F4DF
:1006100000420A600A6842F008020A600A6842F072
:1006200004020A608A6842F080028A600A6842F026
:1006300020020A600A6842F400520A60016841F030
:10064000150101600168890203D4016841F40011B9
:1006500001600E2000F064F8272000F061F880BDF2
:1006600044F6000CC4F2000CDCF800305B06FBD54D
:1006700046F25803C4F202031A6822F001021A601B
:100680001A68D207FCD153F8502C42F0006243F8AC
:10069000502C0CF104029A60D8605960186840F040
:1006A00000601860186840F400301860186840F066
:1006B00040001860186840F480601860186840F0C6
:1006C0001000186053F8500C40F0006043F8500CD4
:1006D000DCF8000020F04000CCF80000186840F082
:1006E000010018607047000044F60000C4F20000EA
:1006F0000168890658BF7047016821F02001016038
:10070000406840F26801C2F20001087070470000C2
:100710004EF20010CEF200004FF4803101607047BD
:10072000002848BF704700F01F01012202FA01F1C2
:100730004EF200124009CEF2000242F8201070473B
:10074000FFF706FEFFF768FEFFF7CCFDFFF730FF6F
:1007500040F20004C2F2000420460121FFF780FFAE
:10076000DC20207020460121FFF77AFFFEE7F1EE42
:10077000100A4FF6FF71C0F2C03120EA010040F0CC
:100780004070E1EE100A70470000110022003300B3
:10079000440055006600770088009900AA00BB005D
:1007A000CC00DD00EE00FF00110122013301440105
:1007B00055016601770188019901AA01BB01CC01AD
:1007C000DD01EE01FF011002220233024402550254
:1007D0006602770288029902AA02BB02CC02DD02FD
:1007E000EE02FF02100321033303440355036603A3
:1007F000770388039903AA03BB03CC03DD03EE034D
:10080000FF031004210432044404550466047704F1
:1008100088049904AA04BB04CC04DD04EE04FF049C
:100820001005210532054305550566057705880540
:100830009905AA05BB05CC05DD05EE05FF051006EB
:100840002106320643065406660677068806990690
:10085000AA06BB06CC06DD06EE06FF06100721073A
:100860003207430754076507770788079907AA07E0
:10087000BB07CC07DD07EE07FF0710082108320889
:10088000430854086508760888089908AA08BB0830
:10089000CC08DD08EE08FF081009210932094309D8
:1008A00054096509760987099909AA09BB09CC0980
:1008B000DD09EE09FF09100A210A320A430A540A27
:1008C000650A760A870A980AAA0ABB0ACC0ADD0AD0
:1008D000EE0AFF0A100B210B320B430B540B650B76
:1008E000760B870B980BA90BBB0BCC0BDD0BEE0B20
:1008F000FF0B100C210C320C430C540C650C760CC5
:10090000870C980CA90CBA0CCC0CDD0CEE0CFF0C6F
:10091000100D210D320D430D540D650D760D870D13
:10092000980DA90DBA0DCB0DDD0DEE0DFF0D100EBE
:10093000210E320E430E540E650E760E870E980E63
:10094000A90EBA0ECB0EDC0EEE0EFF0E100F210F0D
:10095000320F430F540F650F760F870F980FA90FB3
:10096000BA0FCB0FDC0FED0F880900080000002044
:1009700004000000C40100088C09000808000020E1
:0C09800068060000E00100080A0000000A
:0400000508000229C4
:00000001FF
