:020000040800F2
:10000000600600200D020008150200081702000813
:10001000190200081B0200081D0200080000000071
:100020000000000000000000000000001F020008A7
:100030002102000800000000230200082502000839
:1000400027020008270200082702000827020008EC
:1000500027020008270200082702000827020008DC
:1000600027020008270200082702000827020008CC
:1000700027020008270200082702000827020008BC
:1000800027020008270200082702000827020008AC
:10009000270200082702000827020008270200089C
:1000A000270200082702000827020008270200088C
:1000B000270200082702000827020008270200087C
:1000C000270200082702000827020008270200086C
:1000D000270200082702000827020008270200085C
:1000E000270200082702000827020008270200084C
:1000F000270200082702000827020008270200083C
:10010000270200082702000827020008270200082B
:10011000270200082702000827020008270200081B
:10012000270200082702000827020008270200080B
:1001300027020008270200082702000827020008FB
:1001400027020008270200082702000827020008EB
:1001500027020008270200082702000827020008DB
:1001600027020008270200082702000827020008CB
:1001700027020008270200082702000800000000EC
:10018000270200082702000800F002F800F02EF80D
:100190000AA090E8000C82448344AAF10107DA45E2
:1001A00001D100F023F8AFF2090EBAE80F0013F006
:1001B000010F18BFFB1A43F0010318473805000070
:1001C000480500000023002400250026103A28BF1F
:1001D00078C1FBD8520728BF30C148BF0B607047B9
:1001E0001FB500F076FA1FBD10B510BD00F031F854
:1001F0001146FFF7F5FF00F047FA00F04FF803B49F
:10020000FFF7F2FF03BC00F057F8000009488047F1
:1002100009480047FEE7FEE7FEE7FEE7FEE7FEE7E8
:10022000FEE7FEE7FEE7FEE704480549054A064B00
:1002300070470000E1040008890100086000002008
:1002400060060020600200206002002070477047B6
:100250007047754600F02CF8AE46050069465346D7
:1002600020F00700854618B020B5FFF7DDFFBDE898
:1002700020404FF000064FF000074FF000084FF00D
:10028000000BAC46ACE8C009ACE8C009ACE8C0095A
:10029000ACE8C00921F007018D46704710B504464F
:1002A000AFF300802046BDE81040FFF7A8BF000074
:1002B000004870470000002001491820ABBEFEE74F
:1002C000260002007047000043F63000C4F202002E
:1002D000416941F4807141610168490203D40168B8
:1002E00041F4800101600168C90703D1016841F050
:1002F000010101600020C4F20200016841F0030125
:10030000016042F20800C4F2010050F8041C41F000
:10031000007140F8041C0021C162016841F40071C1
:100320000160016841F480710160016841F00201DF
:100330000160704743F60001C4F20201086840F40E
:10034000803008600868800307D441F2020000BFD3
:10035000013842D00A689203FAD5486840F4800018
:100360004860486840F004004860486820F0100089
:100370004860486820F440504860486840F4905015
:100380004860486820F440304860086840F0807059
:1003900008600868800106D441F20200013821D0CB
:1003A0000A689201FAD5D1F8000440F00300C1F8C0
:1003B000000488688860886840F480508860886895
:1003C0008860886840F00200886000BF8868000785
:1003D000FCD500206FF001020CE04FF0FF306FF40D
:1003E000803207E008686FF4803220F08070086087
:1003F0006FF001000B681A400A60704710B543F6B1
:100400003004C4F202042069800003D4206940F063
:10041000005020612068C00703D1206840F001002F
:1004200020600020C4F20200016841F440710160C4
:1004300047F20040C4F20000016841F480510160BD
:10044000016841F004010160016841F001010160AF
:100450002068800203D4206840F40010206046F237
:100460008800C4F2020050F87C1C41F4006140F89E
:100470007C1C016841F060610160016841F4003159
:100480000160016841F400510160016841F40061BC
:100490000160016841F480610160016841F480718C
:1004A0000160016841F040010160016841F0100104
:1004B000016000F0D9F82069C00603D4206940F03B
:1004C0001000206141F20400C4F2000000214162EA
:1004D00001621D218162016841F02001016010BDAF
:1004E0004EF68850CEF2000001684FF0000C41F447
:1004F0007001016043F60001C4F202010A6842F093
:1005000001020A60C1F808C00B684FF6FF72CFF60F
:10051000F6621A400A6043F21002C2F200424A60D8
:100520000A6822F480220A60C1F80CC04FF0006112
:1005300040F8801C7047000080B543F63000C4F2DC
:1005400002000168C90703D1016841F0010101609F
:100550000021C4F202010A6842F020020A600A681F
:1005600042F080020A600A6A42F4E0620A620A6AA1
:1005700042F4E0420A620169890303D4016941F44B
:100580000031016144F20C41C4F20001142241F82F
:10059000042C0A6842F400420A600A6842F0080229
:1005A0000A600A6842F004020A608A6842F0800227
:1005B0008A608A6842F040028A600A6842F4005207
:1005C0000A60016841F0150101600168890203D4E5
:1005D000016841F40011016000F04EF880BD000098
:1005E00044F2004CC4F2000CDCF800305B06FBD592
:1005F00046F2A003C4F202031A6822F001021A6054
:100600001A68D207FCD153F8942C42F4001243F834
:10061000942C0CF104029A60D8605960186840F07C
:1006200000601860186840F400301860186840F0E6
:1006300040001860186840F480601860186840F046
:100640001000186053F8940C40F4001043F8940C18
:10065000DCF8000020F04000CCF80000186840F002
:1006600001001860704700004EF20010CEF200004A
:100670004FF48031016070474EF20010CEF200005E
:100680004FF4003101607047FFF754FEFFF7B6FEEC
:10069000FFF71AFEFFF750FF43F63000C4F20200E6
:1006A000016840F2EC6441F00801016040F600404E
:1006B000C4F202000168C0F6000441F0804101600C
:1006C00020460721FFF78CFF20460721FFF788FF10
:1006D000FEE7F1EE100A4FF6FF71C0F2C03120EADA
:1006E000010040F04070E1EE100A704748656C6C04
:1006F0006F0D0A00040700080000002060060000DB
:04070000C401000828
:040000050800020DE0
:00000001FF
